{
  "contractName": "MusicNFT",
  "abi": [
    {
      "inputs": [],
      "stateMutability": "nonpayable",
      "type": "constructor"
    },
    {
      "anonymous": false,
      "inputs": [
        {
          "indexed": true,
          "internalType": "address",
          "name": "owner",
          "type": "address"
        },
        {
          "indexed": true,
          "internalType": "address",
          "name": "approved",
          "type": "address"
        },
        {
          "indexed": true,
          "internalType": "uint256",
          "name": "tokenId",
          "type": "uint256"
        }
      ],
      "name": "Approval",
      "type": "event"
    },
    {
      "anonymous": false,
      "inputs": [
        {
          "indexed": true,
          "internalType": "address",
          "name": "owner",
          "type": "address"
        },
        {
          "indexed": true,
          "internalType": "address",
          "name": "operator",
          "type": "address"
        },
        {
          "indexed": false,
          "internalType": "bool",
          "name": "approved",
          "type": "bool"
        }
      ],
      "name": "ApprovalForAll",
      "type": "event"
    },
    {
      "anonymous": false,
      "inputs": [
        {
          "indexed": true,
          "internalType": "address",
          "name": "sender",
          "type": "address"
        },
        {
          "indexed": false,
          "internalType": "string",
          "name": "tokenURI",
          "type": "string"
        }
      ],
      "name": "MintAttempt",
      "type": "event"
    },
    {
      "anonymous": false,
      "inputs": [
        {
          "indexed": true,
          "internalType": "address",
          "name": "previousOwner",
          "type": "address"
        },
        {
          "indexed": true,
          "internalType": "address",
          "name": "newOwner",
          "type": "address"
        }
      ],
      "name": "OwnershipTransferred",
      "type": "event"
    },
    {
      "anonymous": false,
      "inputs": [
        {
          "indexed": false,
          "internalType": "uint256",
          "name": "tokenId",
          "type": "uint256"
        },
        {
          "indexed": false,
          "internalType": "string",
          "name": "tokenURI",
          "type": "string"
        }
      ],
      "name": "TokenMinted",
      "type": "event"
    },
    {
      "anonymous": false,
      "inputs": [
        {
          "indexed": true,
          "internalType": "address",
          "name": "from",
          "type": "address"
        },
        {
          "indexed": true,
          "internalType": "address",
          "name": "to",
          "type": "address"
        },
        {
          "indexed": true,
          "internalType": "uint256",
          "name": "tokenId",
          "type": "uint256"
        }
      ],
      "name": "Transfer",
      "type": "event"
    },
    {
      "inputs": [
        {
          "internalType": "address",
          "name": "to",
          "type": "address"
        },
        {
          "internalType": "uint256",
          "name": "tokenId",
          "type": "uint256"
        }
      ],
      "name": "approve",
      "outputs": [],
      "stateMutability": "nonpayable",
      "type": "function"
    },
    {
      "inputs": [
        {
          "internalType": "address",
          "name": "owner",
          "type": "address"
        }
      ],
      "name": "balanceOf",
      "outputs": [
        {
          "internalType": "uint256",
          "name": "",
          "type": "uint256"
        }
      ],
      "stateMutability": "view",
      "type": "function"
    },
    {
      "inputs": [
        {
          "internalType": "uint256",
          "name": "tokenId",
          "type": "uint256"
        }
      ],
      "name": "getApproved",
      "outputs": [
        {
          "internalType": "address",
          "name": "",
          "type": "address"
        }
      ],
      "stateMutability": "view",
      "type": "function"
    },
    {
      "inputs": [
        {
          "internalType": "address",
          "name": "owner",
          "type": "address"
        },
        {
          "internalType": "address",
          "name": "operator",
          "type": "address"
        }
      ],
      "name": "isApprovedForAll",
      "outputs": [
        {
          "internalType": "bool",
          "name": "",
          "type": "bool"
        }
      ],
      "stateMutability": "view",
      "type": "function"
    },
    {
      "inputs": [],
      "name": "name",
      "outputs": [
        {
          "internalType": "string",
          "name": "",
          "type": "string"
        }
      ],
      "stateMutability": "view",
      "type": "function"
    },
    {
      "inputs": [],
      "name": "nextTokenId",
      "outputs": [
        {
          "internalType": "uint256",
          "name": "",
          "type": "uint256"
        }
      ],
      "stateMutability": "view",
      "type": "function"
    },
    {
      "inputs": [],
      "name": "owner",
      "outputs": [
        {
          "internalType": "address",
          "name": "",
          "type": "address"
        }
      ],
      "stateMutability": "view",
      "type": "function"
    },
    {
      "inputs": [
        {
          "internalType": "uint256",
          "name": "tokenId",
          "type": "uint256"
        }
      ],
      "name": "ownerOf",
      "outputs": [
        {
          "internalType": "address",
          "name": "",
          "type": "address"
        }
      ],
      "stateMutability": "view",
      "type": "function"
    },
    {
      "inputs": [],
      "name": "renounceOwnership",
      "outputs": [],
      "stateMutability": "nonpayable",
      "type": "function"
    },
    {
      "inputs": [
        {
          "internalType": "address",
          "name": "from",
          "type": "address"
        },
        {
          "internalType": "address",
          "name": "to",
          "type": "address"
        },
        {
          "internalType": "uint256",
          "name": "tokenId",
          "type": "uint256"
        }
      ],
      "name": "safeTransferFrom",
      "outputs": [],
      "stateMutability": "nonpayable",
      "type": "function"
    },
    {
      "inputs": [
        {
          "internalType": "address",
          "name": "from",
          "type": "address"
        },
        {
          "internalType": "address",
          "name": "to",
          "type": "address"
        },
        {
          "internalType": "uint256",
          "name": "tokenId",
          "type": "uint256"
        },
        {
          "internalType": "bytes",
          "name": "_data",
          "type": "bytes"
        }
      ],
      "name": "safeTransferFrom",
      "outputs": [],
      "stateMutability": "nonpayable",
      "type": "function"
    },
    {
      "inputs": [
        {
          "internalType": "address",
          "name": "operator",
          "type": "address"
        },
        {
          "internalType": "bool",
          "name": "approved",
          "type": "bool"
        }
      ],
      "name": "setApprovalForAll",
      "outputs": [],
      "stateMutability": "nonpayable",
      "type": "function"
    },
    {
      "inputs": [
        {
          "internalType": "bytes4",
          "name": "interfaceId",
          "type": "bytes4"
        }
      ],
      "name": "supportsInterface",
      "outputs": [
        {
          "internalType": "bool",
          "name": "",
          "type": "bool"
        }
      ],
      "stateMutability": "view",
      "type": "function"
    },
    {
      "inputs": [],
      "name": "symbol",
      "outputs": [
        {
          "internalType": "string",
          "name": "",
          "type": "string"
        }
      ],
      "stateMutability": "view",
      "type": "function"
    },
    {
      "inputs": [
        {
          "internalType": "address",
          "name": "from",
          "type": "address"
        },
        {
          "internalType": "address",
          "name": "to",
          "type": "address"
        },
        {
          "internalType": "uint256",
          "name": "tokenId",
          "type": "uint256"
        }
      ],
      "name": "transferFrom",
      "outputs": [],
      "stateMutability": "nonpayable",
      "type": "function"
    },
    {
      "inputs": [
        {
          "internalType": "address",
          "name": "newOwner",
          "type": "address"
        }
      ],
      "name": "transferOwnership",
      "outputs": [],
      "stateMutability": "nonpayable",
      "type": "function"
    },
    {
      "inputs": [
        {
          "internalType": "string",
          "name": "tokenURI",
          "type": "string"
        }
      ],
      "name": "mint",
      "outputs": [],
      "stateMutability": "nonpayable",
      "type": "function"
    },
    {
      "inputs": [
        {
          "internalType": "uint256",
          "name": "tokenId",
          "type": "uint256"
        }
      ],
      "name": "exists",
      "outputs": [
        {
          "internalType": "bool",
          "name": "",
          "type": "bool"
        }
      ],
      "stateMutability": "view",
      "type": "function"
    },
    {
      "inputs": [
        {
          "internalType": "uint256",
          "name": "tokenId",
          "type": "uint256"
        }
      ],
      "name": "tokenURI",
      "outputs": [
        {
          "internalType": "string",
          "name": "",
          "type": "string"
        }
      ],
      "stateMutability": "view",
      "type": "function"
    },
    {
      "inputs": [],
      "name": "withdraw",
      "outputs": [],
      "stateMutability": "nonpayable",
      "type": "function"
    }
  ],
  "bytecode": "0x60806040523480156200001157600080fd5b506040518060400160405280600881526020017f4d757369634e46540000000000000000000000000000000000000000000000008152506040518060400160405280600481526020017f4d4e46540000000000000000000000000000000000000000000000000000000081525081600090816200008f919062000412565b508060019081620000a1919062000412565b505050620000c4620000b8620000ca60201b60201c565b620000d260201b60201c565b620004f9565b600033905090565b6000600660009054906101000a900473ffffffffffffffffffffffffffffffffffffffff16905081600660006101000a81548173ffffffffffffffffffffffffffffffffffffffff021916908373ffffffffffffffffffffffffffffffffffffffff1602179055508173ffffffffffffffffffffffffffffffffffffffff168173ffffffffffffffffffffffffffffffffffffffff167f8be0079c531659141344cd1fd0a4f28419497f9722a3daafe3b4186f6b6457e060405160405180910390a35050565b600081519050919050565b7f4e487b7100000000000000000000000000000000000000000000000000000000600052604160045260246000fd5b7f4e487b7100000000000000000000000000000000000000000000000000000000600052602260045260246000fd5b600060028204905060018216806200021a57607f821691505b60208210810362000230576200022f620001d2565b5b50919050565b60008190508160005260206000209050919050565b60006020601f8301049050919050565b600082821b905092915050565b6000600883026200029a7fffffffffffffffffffffffffffffffffffffffffffffffffffffffffffffffff826200025b565b620002a686836200025b565b95508019841693508086168417925050509392505050565b6000819050919050565b6000819050919050565b6000620002f3620002ed620002e784620002be565b620002c8565b620002be565b9050919050565b6000819050919050565b6200030f83620002d2565b620003276200031e82620002fa565b84845462000268565b825550505050565b600090565b6200033e6200032f565b6200034b81848462000304565b505050565b5b8181101562000373576200036760008262000334565b60018101905062000351565b5050565b601f821115620003c2576200038c8162000236565b62000397846200024b565b81016020851015620003a7578190505b620003bf620003b6856200024b565b83018262000350565b50505b505050565b600082821c905092915050565b6000620003e760001984600802620003c7565b1980831691505092915050565b6000620004028383620003d4565b9150826002028217905092915050565b6200041d8262000198565b67ffffffffffffffff811115620004395762000438620001a3565b5b62000445825462000201565b6200045282828562000377565b600060209050601f8311600181146200048a576000841562000475578287015190505b620004818582620003f4565b865550620004f1565b601f1984166200049a8662000236565b60005b82811015620004c4578489015182556001820191506020850194506020810190506200049d565b86831015620004e45784890151620004e0601f891682620003d4565b8355505b6001600288020188555050505b505050505050565b612e5280620005096000396000f3fe608060405234801561001057600080fd5b506004361061012c5760003560e01c8063715018a6116100ad578063b88d4fde11610071578063b88d4fde1461031d578063c87b56dd14610339578063d85d3d2714610369578063e985e9c514610385578063f2fde38b146103b55761012c565b8063715018a61461029d57806375794a3c146102a75780638da5cb5b146102c557806395d89b41146102e3578063a22cb465146103015761012c565b80633ccfd60b116100f45780633ccfd60b146101e757806342842e0e146101f15780634f558e791461020d5780636352211e1461023d57806370a082311461026d5761012c565b806301ffc9a71461013157806306fdde0314610161578063081812fc1461017f578063095ea7b3146101af57806323b872dd146101cb575b600080fd5b61014b60048036038101906101469190611ae2565b6103d1565b6040516101589190611b2a565b60405180910390f35b6101696104b3565b6040516101769190611bd5565b60405180910390f35b61019960048036038101906101949190611c2d565b610545565b6040516101a69190611c9b565b60405180910390f35b6101c960048036038101906101c49190611ce2565b6105ca565b005b6101e560048036038101906101e09190611d22565b6106e1565b005b6101ef610741565b005b61020b60048036038101906102069190611d22565b61080d565b005b61022760048036038101906102229190611c2d565b61082d565b6040516102349190611b2a565b60405180910390f35b61025760048036038101906102529190611c2d565b61083f565b6040516102649190611c9b565b60405180910390f35b61028760048036038101906102829190611d75565b6108f0565b6040516102949190611db1565b60405180910390f35b6102a56109a7565b005b6102af610a2f565b6040516102bc9190611db1565b60405180910390f35b6102cd610a35565b6040516102da9190611c9b565b60405180910390f35b6102eb610a5f565b6040516102f89190611bd5565b60405180910390f35b61031b60048036038101906103169190611df8565b610af1565b005b61033760048036038101906103329190611f6d565b610b07565b005b610353600480360381019061034e9190611c2d565b610b69565b6040516103609190611bd5565b60405180910390f35b610383600480360381019061037e9190612091565b610c56565b005b61039f600480360381019061039a91906120da565b610d57565b6040516103ac9190611b2a565b60405180910390f35b6103cf60048036038101906103ca9190611d75565b610deb565b005b60007f80ac58cd000000000000000000000000000000000000000000000000000000007bffffffffffffffffffffffffffffffffffffffffffffffffffffffff1916827bffffffffffffffffffffffffffffffffffffffffffffffffffffffff1916148061049c57507f5b5e139f000000000000000000000000000000000000000000000000000000007bffffffffffffffffffffffffffffffffffffffffffffffffffffffff1916827bffffffffffffffffffffffffffffffffffffffffffffffffffffffff1916145b806104ac57506104ab82610ee2565b5b9050919050565b6060600080546104c290612149565b80601f01602080910402602001604051908101604052809291908181526020018280546104ee90612149565b801561053b5780601f106105105761010080835404028352916020019161053b565b820191906000526020600020905b81548152906001019060200180831161051e57829003601f168201915b5050505050905090565b600061055082610f4c565b61058f576040517f08c379a0000000000000000000000000000000000000000000000000000000008152600401610586906121ec565b60405180910390fd5b6004600083815260200190815260200160002060009054906101000a900473ffffffffffffffffffffffffffffffffffffffff169050919050565b60006105d58261083f565b90508073ffffffffffffffffffffffffffffffffffffffff168373ffffffffffffffffffffffffffffffffffffffff1603610645576040517f08c379a000000000000000000000000000000000000000000000000000000000815260040161063c9061227e565b60405180910390fd5b8073ffffffffffffffffffffffffffffffffffffffff16610664610fb8565b73ffffffffffffffffffffffffffffffffffffffff16148061069357506106928161068d610fb8565b610d57565b5b6106d2576040517f08c379a00000000000000000000000000000000000000000000000000000000081526004016106c990612310565b60405180910390fd5b6106dc8383610fc0565b505050565b6106f26106ec610fb8565b82611079565b610731576040517f08c379a0000000000000000000000000000000000000000000000000000000008152600401610728906123a2565b60405180910390fd5b61073c838383611157565b505050565b610749610fb8565b73ffffffffffffffffffffffffffffffffffffffff16610767610a35565b73ffffffffffffffffffffffffffffffffffffffff16146107bd576040517f08c379a00000000000000000000000000000000000000000000000000000000081526004016107b49061240e565b60405180910390fd5b6107c5610a35565b73ffffffffffffffffffffffffffffffffffffffff166108fc479081150290604051600060405180830381858888f1935050505015801561080a573d6000803e3d6000fd5b50565b61082883838360405180602001604052806000815250610b07565b505050565b600061083882610f4c565b9050919050565b6000806002600084815260200190815260200160002060009054906101000a900473ffffffffffffffffffffffffffffffffffffffff169050600073ffffffffffffffffffffffffffffffffffffffff168173ffffffffffffffffffffffffffffffffffffffff16036108e7576040517f08c379a00000000000000000000000000000000000000000000000000000000081526004016108de906124a0565b60405180910390fd5b80915050919050565b60008073ffffffffffffffffffffffffffffffffffffffff168273ffffffffffffffffffffffffffffffffffffffff1603610960576040517f08c379a000000000000000000000000000000000000000000000000000000000815260040161095790612532565b60405180910390fd5b600360008373ffffffffffffffffffffffffffffffffffffffff1673ffffffffffffffffffffffffffffffffffffffff168152602001908152602001600020549050919050565b6109af610fb8565b73ffffffffffffffffffffffffffffffffffffffff166109cd610a35565b73ffffffffffffffffffffffffffffffffffffffff1614610a23576040517f08c379a0000000000000000000000000000000000000000000000000000000008152600401610a1a9061240e565b60405180910390fd5b610a2d60006113bd565b565b60075481565b6000600660009054906101000a900473ffffffffffffffffffffffffffffffffffffffff16905090565b606060018054610a6e90612149565b80601f0160208091040260200160405190810160405280929190818152602001828054610a9a90612149565b8015610ae75780601f10610abc57610100808354040283529160200191610ae7565b820191906000526020600020905b815481529060010190602001808311610aca57829003601f168201915b5050505050905090565b610b03610afc610fb8565b8383611483565b5050565b610b18610b12610fb8565b83611079565b610b57576040517f08c379a0000000000000000000000000000000000000000000000000000000008152600401610b4e906123a2565b60405180910390fd5b610b63848484846115ef565b50505050565b6060610b7482610f4c565b610bb3576040517f08c379a0000000000000000000000000000000000000000000000000000000008152600401610baa9061259e565b60405180910390fd5b600860008381526020019081526020016000208054610bd190612149565b80601f0160208091040260200160405190810160405280929190818152602001828054610bfd90612149565b8015610c4a5780601f10610c1f57610100808354040283529160200191610c4a565b820191906000526020600020905b815481529060010190602001808311610c2d57829003601f168201915b50505050509050919050565b610c5e610fb8565b73ffffffffffffffffffffffffffffffffffffffff16610c7c610a35565b73ffffffffffffffffffffffffffffffffffffffff1614610cd2576040517f08c379a0000000000000000000000000000000000000000000000000000000008152600401610cc99061240e565b60405180910390fd5b3373ffffffffffffffffffffffffffffffffffffffff167feb0e28c4dc04e5c25e6dcfac1cb70fd550b6159cf34c7168087dd5256c4f74d382604051610d189190611bd5565b60405180910390a260006007549050610d31338261164b565b610d3b8183611669565b60076000815480929190610d4e906125ed565b91905055505050565b6000600560008473ffffffffffffffffffffffffffffffffffffffff1673ffffffffffffffffffffffffffffffffffffffff16815260200190815260200160002060008373ffffffffffffffffffffffffffffffffffffffff1673ffffffffffffffffffffffffffffffffffffffff16815260200190815260200160002060009054906101000a900460ff16905092915050565b610df3610fb8565b73ffffffffffffffffffffffffffffffffffffffff16610e11610a35565b73ffffffffffffffffffffffffffffffffffffffff1614610e67576040517f08c379a0000000000000000000000000000000000000000000000000000000008152600401610e5e9061240e565b60405180910390fd5b600073ffffffffffffffffffffffffffffffffffffffff168173ffffffffffffffffffffffffffffffffffffffff1603610ed6576040517f08c379a0000000000000000000000000000000000000000000000000000000008152600401610ecd906126a7565b60405180910390fd5b610edf816113bd565b50565b60007f01ffc9a7000000000000000000000000000000000000000000000000000000007bffffffffffffffffffffffffffffffffffffffffffffffffffffffff1916827bffffffffffffffffffffffffffffffffffffffffffffffffffffffff1916149050919050565b60008073ffffffffffffffffffffffffffffffffffffffff166002600084815260200190815260200160002060009054906101000a900473ffffffffffffffffffffffffffffffffffffffff1673ffffffffffffffffffffffffffffffffffffffff1614159050919050565b600033905090565b816004600083815260200190815260200160002060006101000a81548173ffffffffffffffffffffffffffffffffffffffff021916908373ffffffffffffffffffffffffffffffffffffffff160217905550808273ffffffffffffffffffffffffffffffffffffffff166110338361083f565b73ffffffffffffffffffffffffffffffffffffffff167f8c5be1e5ebec7d5bd14f71427d1e84f3dd0314c0f7b2291e5b200ac8c7c3b92560405160405180910390a45050565b600061108482610f4c565b6110c3576040517f08c379a00000000000000000000000000000000000000000000000000000000081526004016110ba90612739565b60405180910390fd5b60006110ce8361083f565b90508073ffffffffffffffffffffffffffffffffffffffff168473ffffffffffffffffffffffffffffffffffffffff161480611110575061110f8185610d57565b5b8061114e57508373ffffffffffffffffffffffffffffffffffffffff1661113684610545565b73ffffffffffffffffffffffffffffffffffffffff16145b91505092915050565b8273ffffffffffffffffffffffffffffffffffffffff166111778261083f565b73ffffffffffffffffffffffffffffffffffffffff16146111cd576040517f08c379a00000000000000000000000000000000000000000000000000000000081526004016111c4906127cb565b60405180910390fd5b600073ffffffffffffffffffffffffffffffffffffffff168273ffffffffffffffffffffffffffffffffffffffff160361123c576040517f08c379a00000000000000000000000000000000000000000000000000000000081526004016112339061285d565b60405180910390fd5b61124783838361168e565b611252600082610fc0565b6001600360008573ffffffffffffffffffffffffffffffffffffffff1673ffffffffffffffffffffffffffffffffffffffff16815260200190815260200160002060008282546112a2919061287d565b925050819055506001600360008473ffffffffffffffffffffffffffffffffffffffff1673ffffffffffffffffffffffffffffffffffffffff16815260200190815260200160002060008282546112f991906128b1565b92505081905550816002600083815260200190815260200160002060006101000a81548173ffffffffffffffffffffffffffffffffffffffff021916908373ffffffffffffffffffffffffffffffffffffffff160217905550808273ffffffffffffffffffffffffffffffffffffffff168473ffffffffffffffffffffffffffffffffffffffff167fddf252ad1be2c89b69c2b068fc378daa952ba7f163c4a11628f55a4df523b3ef60405160405180910390a46113b8838383611693565b505050565b6000600660009054906101000a900473ffffffffffffffffffffffffffffffffffffffff16905081600660006101000a81548173ffffffffffffffffffffffffffffffffffffffff021916908373ffffffffffffffffffffffffffffffffffffffff1602179055508173ffffffffffffffffffffffffffffffffffffffff168173ffffffffffffffffffffffffffffffffffffffff167f8be0079c531659141344cd1fd0a4f28419497f9722a3daafe3b4186f6b6457e060405160405180910390a35050565b8173ffffffffffffffffffffffffffffffffffffffff168373ffffffffffffffffffffffffffffffffffffffff16036114f1576040517f08c379a00000000000000000000000000000000000000000000000000000000081526004016114e890612931565b60405180910390fd5b80600560008573ffffffffffffffffffffffffffffffffffffffff1673ffffffffffffffffffffffffffffffffffffffff16815260200190815260200160002060008473ffffffffffffffffffffffffffffffffffffffff1673ffffffffffffffffffffffffffffffffffffffff16815260200190815260200160002060006101000a81548160ff0219169083151502179055508173ffffffffffffffffffffffffffffffffffffffff168373ffffffffffffffffffffffffffffffffffffffff167f17307eab39ab6107e8899845ad3d59bd9653f200f220920489ca2b5937696c31836040516115e29190611b2a565b60405180910390a3505050565b6115fa848484611157565b61160684848484611698565b611645576040517f08c379a000000000000000000000000000000000000000000000000000000000815260040161163c906129c3565b60405180910390fd5b50505050565b61166582826040518060200160405280600081525061181f565b5050565b806008600084815260200190815260200160002090816116899190612b8f565b505050565b505050565b505050565b60006116b98473ffffffffffffffffffffffffffffffffffffffff1661187a565b15611812578373ffffffffffffffffffffffffffffffffffffffff1663150b7a026116e2610fb8565b8786866040518563ffffffff1660e01b81526004016117049493929190612cb6565b6020604051808303816000875af192505050801561174057506040513d601f19601f8201168201806040525081019061173d9190612d17565b60015b6117c2573d8060008114611770576040519150601f19603f3d011682016040523d82523d6000602084013e611775565b606091505b5060008151036117ba576040517f08c379a00000000000000000000000000000000000000000000000000000000081526004016117b1906129c3565b60405180910390fd5b805181602001fd5b63150b7a0260e01b7bffffffffffffffffffffffffffffffffffffffffffffffffffffffff1916817bffffffffffffffffffffffffffffffffffffffffffffffffffffffff191614915050611817565b600190505b949350505050565b611829838361189d565b6118366000848484611698565b611875576040517f08c379a000000000000000000000000000000000000000000000000000000000815260040161186c906129c3565b60405180910390fd5b505050565b6000808273ffffffffffffffffffffffffffffffffffffffff163b119050919050565b600073ffffffffffffffffffffffffffffffffffffffff168273ffffffffffffffffffffffffffffffffffffffff160361190c576040517f08c379a000000000000000000000000000000000000000000000000000000000815260040161190390612d90565b60405180910390fd5b61191581610f4c565b15611955576040517f08c379a000000000000000000000000000000000000000000000000000000000815260040161194c90612dfc565b60405180910390fd5b6119616000838361168e565b6001600360008473ffffffffffffffffffffffffffffffffffffffff1673ffffffffffffffffffffffffffffffffffffffff16815260200190815260200160002060008282546119b191906128b1565b92505081905550816002600083815260200190815260200160002060006101000a81548173ffffffffffffffffffffffffffffffffffffffff021916908373ffffffffffffffffffffffffffffffffffffffff160217905550808273ffffffffffffffffffffffffffffffffffffffff16600073ffffffffffffffffffffffffffffffffffffffff167fddf252ad1be2c89b69c2b068fc378daa952ba7f163c4a11628f55a4df523b3ef60405160405180910390a4611a7260008383611693565b5050565b6000604051905090565b600080fd5b600080fd5b60007fffffffff0000000000000000000000000000000000000000000000000000000082169050919050565b611abf81611a8a565b8114611aca57600080fd5b50565b600081359050611adc81611ab6565b92915050565b600060208284031215611af857611af7611a80565b5b6000611b0684828501611acd565b91505092915050565b60008115159050919050565b611b2481611b0f565b82525050565b6000602082019050611b3f6000830184611b1b565b92915050565b600081519050919050565b600082825260208201905092915050565b60005b83811015611b7f578082015181840152602081019050611b64565b60008484015250505050565b6000601f19601f8301169050919050565b6000611ba782611b45565b611bb18185611b50565b9350611bc1818560208601611b61565b611bca81611b8b565b840191505092915050565b60006020820190508181036000830152611bef8184611b9c565b905092915050565b6000819050919050565b611c0a81611bf7565b8114611c1557600080fd5b50565b600081359050611c2781611c01565b92915050565b600060208284031215611c4357611c42611a80565b5b6000611c5184828501611c18565b91505092915050565b600073ffffffffffffffffffffffffffffffffffffffff82169050919050565b6000611c8582611c5a565b9050919050565b611c9581611c7a565b82525050565b6000602082019050611cb06000830184611c8c565b92915050565b611cbf81611c7a565b8114611cca57600080fd5b50565b600081359050611cdc81611cb6565b92915050565b60008060408385031215611cf957611cf8611a80565b5b6000611d0785828601611ccd565b9250506020611d1885828601611c18565b9150509250929050565b600080600060608486031215611d3b57611d3a611a80565b5b6000611d4986828701611ccd565b9350506020611d5a86828701611ccd565b9250506040611d6b86828701611c18565b9150509250925092565b600060208284031215611d8b57611d8a611a80565b5b6000611d9984828501611ccd565b91505092915050565b611dab81611bf7565b82525050565b6000602082019050611dc66000830184611da2565b92915050565b611dd581611b0f565b8114611de057600080fd5b50565b600081359050611df281611dcc565b92915050565b60008060408385031215611e0f57611e0e611a80565b5b6000611e1d85828601611ccd565b9250506020611e2e85828601611de3565b9150509250929050565b600080fd5b600080fd5b7f4e487b7100000000000000000000000000000000000000000000000000000000600052604160045260246000fd5b611e7a82611b8b565b810181811067ffffffffffffffff82111715611e9957611e98611e42565b5b80604052505050565b6000611eac611a76565b9050611eb88282611e71565b919050565b600067ffffffffffffffff821115611ed857611ed7611e42565b5b611ee182611b8b565b9050602081019050919050565b82818337600083830152505050565b6000611f10611f0b84611ebd565b611ea2565b905082815260208101848484011115611f2c57611f2b611e3d565b5b611f37848285611eee565b509392505050565b600082601f830112611f5457611f53611e38565b5b8135611f64848260208601611efd565b91505092915050565b60008060008060808587031215611f8757611f86611a80565b5b6000611f9587828801611ccd565b9450506020611fa687828801611ccd565b9350506040611fb787828801611c18565b925050606085013567ffffffffffffffff811115611fd857611fd7611a85565b5b611fe487828801611f3f565b91505092959194509250565b600067ffffffffffffffff82111561200b5761200a611e42565b5b61201482611b8b565b9050602081019050919050565b600061203461202f84611ff0565b611ea2565b9050828152602081018484840111156120505761204f611e3d565b5b61205b848285611eee565b509392505050565b600082601f83011261207857612077611e38565b5b8135612088848260208601612021565b91505092915050565b6000602082840312156120a7576120a6611a80565b5b600082013567ffffffffffffffff8111156120c5576120c4611a85565b5b6120d184828501612063565b91505092915050565b600080604083850312156120f1576120f0611a80565b5b60006120ff85828601611ccd565b925050602061211085828601611ccd565b9150509250929050565b7f4e487b7100000000000000000000000000000000000000000000000000000000600052602260045260246000fd5b6000600282049050600182168061216157607f821691505b6020821081036121745761217361211a565b5b50919050565b7f4552433732313a20617070726f76656420717565727920666f72206e6f6e657860008201527f697374656e7420746f6b656e0000000000000000000000000000000000000000602082015250565b60006121d6602c83611b50565b91506121e18261217a565b604082019050919050565b60006020820190508181036000830152612205816121c9565b9050919050565b7f4552433732313a20617070726f76616c20746f2063757272656e74206f776e6560008201527f7200000000000000000000000000000000000000000000000000000000000000602082015250565b6000612268602183611b50565b91506122738261220c565b604082019050919050565b600060208201905081810360008301526122978161225b565b9050919050565b7f4552433732313a20617070726f76652063616c6c6572206973206e6f74206f7760008201527f6e6572206e6f7220617070726f76656420666f7220616c6c0000000000000000602082015250565b60006122fa603883611b50565b91506123058261229e565b604082019050919050565b60006020820190508181036000830152612329816122ed565b9050919050565b7f4552433732313a207472616e736665722063616c6c6572206973206e6f74206f60008201527f776e6572206e6f7220617070726f766564000000000000000000000000000000602082015250565b600061238c603183611b50565b915061239782612330565b604082019050919050565b600060208201905081810360008301526123bb8161237f565b9050919050565b7f4f776e61626c653a2063616c6c6572206973206e6f7420746865206f776e6572600082015250565b60006123f8602083611b50565b9150612403826123c2565b602082019050919050565b60006020820190508181036000830152612427816123eb565b9050919050565b7f4552433732313a206f776e657220717565727920666f72206e6f6e657869737460008201527f656e7420746f6b656e0000000000000000000000000000000000000000000000602082015250565b600061248a602983611b50565b91506124958261242e565b604082019050919050565b600060208201905081810360008301526124b98161247d565b9050919050565b7f4552433732313a2062616c616e636520717565727920666f7220746865207a6560008201527f726f206164647265737300000000000000000000000000000000000000000000602082015250565b600061251c602a83611b50565b9150612527826124c0565b604082019050919050565b6000602082019050818103600083015261254b8161250f565b9050919050565b7f517565727920666f72206e6f6e6578697374656e7420746f6b656e0000000000600082015250565b6000612588601b83611b50565b915061259382612552565b602082019050919050565b600060208201905081810360008301526125b78161257b565b9050919050565b7f4e487b7100000000000000000000000000000000000000000000000000000000600052601160045260246000fd5b60006125f882611bf7565b91507fffffffffffffffffffffffffffffffffffffffffffffffffffffffffffffffff820361262a576126296125be565b5b600182019050919050565b7f4f776e61626c653a206e6577206f776e657220697320746865207a65726f206160008201527f6464726573730000000000000000000000000000000000000000000000000000602082015250565b6000612691602683611b50565b915061269c82612635565b604082019050919050565b600060208201905081810360008301526126c081612684565b9050919050565b7f4552433732313a206f70657261746f7220717565727920666f72206e6f6e657860008201527f697374656e7420746f6b656e0000000000000000000000000000000000000000602082015250565b6000612723602c83611b50565b915061272e826126c7565b604082019050919050565b6000602082019050818103600083015261275281612716565b9050919050565b7f4552433732313a207472616e736665722066726f6d20696e636f72726563742060008201527f6f776e6572000000000000000000000000000000000000000000000000000000602082015250565b60006127b5602583611b50565b91506127c082612759565b604082019050919050565b600060208201905081810360008301526127e4816127a8565b9050919050565b7f4552433732313a207472616e7366657220746f20746865207a65726f2061646460008201527f7265737300000000000000000000000000000000000000000000000000000000602082015250565b6000612847602483611b50565b9150612852826127eb565b604082019050919050565b600060208201905081810360008301526128768161283a565b9050919050565b600061288882611bf7565b915061289383611bf7565b92508282039050818111156128ab576128aa6125be565b5b92915050565b60006128bc82611bf7565b91506128c783611bf7565b92508282019050808211156128df576128de6125be565b5b92915050565b7f4552433732313a20617070726f766520746f2063616c6c657200000000000000600082015250565b600061291b601983611b50565b9150612926826128e5565b602082019050919050565b6000602082019050818103600083015261294a8161290e565b9050919050565b7f4552433732313a207472616e7366657220746f206e6f6e20455243373231526560008201527f63656976657220696d706c656d656e7465720000000000000000000000000000602082015250565b60006129ad603283611b50565b91506129b882612951565b604082019050919050565b600060208201905081810360008301526129dc816129a0565b9050919050565b60008190508160005260206000209050919050565b60006020601f8301049050919050565b600082821b905092915050565b600060088302612a457fffffffffffffffffffffffffffffffffffffffffffffffffffffffffffffffff82612a08565b612a4f8683612a08565b95508019841693508086168417925050509392505050565b6000819050919050565b6000612a8c612a87612a8284611bf7565b612a67565b611bf7565b9050919050565b6000819050919050565b612aa683612a71565b612aba612ab282612a93565b848454612a15565b825550505050565b600090565b612acf612ac2565b612ada818484612a9d565b505050565b5b81811015612afe57612af3600082612ac7565b600181019050612ae0565b5050565b601f821115612b4357612b14816129e3565b612b1d846129f8565b81016020851015612b2c578190505b612b40612b38856129f8565b830182612adf565b50505b505050565b600082821c905092915050565b6000612b6660001984600802612b48565b1980831691505092915050565b6000612b7f8383612b55565b9150826002028217905092915050565b612b9882611b45565b67ffffffffffffffff811115612bb157612bb0611e42565b5b612bbb8254612149565b612bc6828285612b02565b600060209050601f831160018114612bf95760008415612be7578287015190505b612bf18582612b73565b865550612c59565b601f198416612c07866129e3565b60005b82811015612c2f57848901518255600182019150602085019450602081019050612c0a565b86831015612c4c5784890151612c48601f891682612b55565b8355505b6001600288020188555050505b505050505050565b600081519050919050565b600082825260208201905092915050565b6000612c8882612c61565b612c928185612c6c565b9350612ca2818560208601611b61565b612cab81611b8b565b840191505092915050565b6000608082019050612ccb6000830187611c8c565b612cd86020830186611c8c565b612ce56040830185611da2565b8181036060830152612cf78184612c7d565b905095945050505050565b600081519050612d1181611ab6565b92915050565b600060208284031215612d2d57612d2c611a80565b5b6000612d3b84828501612d02565b91505092915050565b7f4552433732313a206d696e7420746f20746865207a65726f2061646472657373600082015250565b6000612d7a602083611b50565b9150612d8582612d44565b602082019050919050565b60006020820190508181036000830152612da981612d6d565b9050919050565b7f4552433732313a20746f6b656e20616c7265616479206d696e74656400000000600082015250565b6000612de6601c83611b50565b9150612df182612db0565b602082019050919050565b60006020820190508181036000830152612e1581612dd9565b905091905056fea2646970667358221220e9f137e85c3d0db4ab9f67196056bf6e4867ea61a090598c286b683c96bf732b64736f6c63430008130033",
  "immutableReferences": {},
  "source": "// SPDX-License-Identifier: MIT\r\npragma solidity ^0.8.19;\r\n\r\nimport \"@openzeppelin/contracts/token/ERC721/ERC721.sol\";\r\nimport \"@openzeppelin/contracts/access/Ownable.sol\";\r\n\r\ncontract MusicNFT is ERC721, Ownable {\r\n    uint256 public nextTokenId;\r\n    mapping(uint256 => string) private _tokenURIs;\r\n\r\n    constructor(\r\n    ) ERC721(\"MusicNFT\", \"MNFT\") {}\r\n\r\n    // Function to mint a new music NFT\r\n           event MintAttempt(address indexed sender, string tokenURI);\r\n    function mint(string memory tokenURI) public onlyOwner {\r\n        emit MintAttempt(msg.sender, tokenURI);\r\n        uint256 tokenId = nextTokenId;\r\n        _safeMint(msg.sender, tokenId);\r\n        _setTokenURI(tokenId, tokenURI);\r\n        nextTokenId++;\r\n    }\r\n    function exists(uint256 tokenId) public view returns (bool) {\r\n    return _exists(tokenId);\r\n    }\r\n\r\n    // Internal function to set the token URI\r\n    function _setTokenURI(uint256 tokenId, string memory tokenURI) internal {\r\n        _tokenURIs[tokenId] = tokenURI;\r\n    }\r\n\r\n    // Function to retrieve the token URI\r\n    function tokenURI(uint256 tokenId) public view override returns (string memory) {\r\n        require(_exists(tokenId), \"Query for nonexistent token\");\r\n        return _tokenURIs[tokenId];\r\n    }\r\n    event TokenMinted(uint256 tokenId, string tokenURI);\r\n\r\n    // Function to withdraw Ether from the contract\r\n    function withdraw() public onlyOwner {\r\n        payable(owner()).transfer(address(this).balance);\r\n    }\r\n}\r\n\r\n",
  "sourcePath": "C:\\Users\\tejas\\Desktop\\project-soc\\contracts\\demo.sol",
  "compiler": {
    "name": "solc",
    "version": "0.8.19+commit.7dd6d404.Emscripten.clang"
  },
  "schemaVersion": "3.4.16",
  "updatedAt": "2024-09-22T17:31:24.923Z",
  "devdoc": {
    "events": {
      "Approval(address,address,uint256)": {
        "details": "Emitted when `owner` enables `approved` to manage the `tokenId` token."
      },
      "ApprovalForAll(address,address,bool)": {
        "details": "Emitted when `owner` enables or disables (`approved`) `operator` to manage all of its assets."
      },
      "Transfer(address,address,uint256)": {
        "details": "Emitted when `tokenId` token is transferred from `from` to `to`."
      }
    },
    "kind": "dev",
    "methods": {
      "approve(address,uint256)": {
        "details": "See {IERC721-approve}."
      },
      "balanceOf(address)": {
        "details": "See {IERC721-balanceOf}."
      },
      "getApproved(uint256)": {
        "details": "See {IERC721-getApproved}."
      },
      "isApprovedForAll(address,address)": {
        "details": "See {IERC721-isApprovedForAll}."
      },
      "name()": {
        "details": "See {IERC721Metadata-name}."
      },
      "owner()": {
        "details": "Returns the address of the current owner."
      },
      "ownerOf(uint256)": {
        "details": "See {IERC721-ownerOf}."
      },
      "renounceOwnership()": {
        "details": "Leaves the contract without owner. It will not be possible to call `onlyOwner` functions anymore. Can only be called by the current owner. NOTE: Renouncing ownership will leave the contract without an owner, thereby removing any functionality that is only available to the owner."
      },
      "safeTransferFrom(address,address,uint256)": {
        "details": "See {IERC721-safeTransferFrom}."
      },
      "safeTransferFrom(address,address,uint256,bytes)": {
        "details": "See {IERC721-safeTransferFrom}."
      },
      "setApprovalForAll(address,bool)": {
        "details": "See {IERC721-setApprovalForAll}."
      },
      "supportsInterface(bytes4)": {
        "details": "See {IERC165-supportsInterface}."
      },
      "symbol()": {
        "details": "See {IERC721Metadata-symbol}."
      },
      "tokenURI(uint256)": {
        "details": "See {IERC721Metadata-tokenURI}."
      },
      "transferFrom(address,address,uint256)": {
        "details": "See {IERC721-transferFrom}."
      },
      "transferOwnership(address)": {
        "details": "Transfers ownership of the contract to a new account (`newOwner`). Can only be called by the current owner."
      }
    },
    "version": 1
  },
  "userdoc": {
    "kind": "user",
    "methods": {},
    "version": 1
  }
}